{
  "_format": "hh-sol-artifact-1",
  "contractName": "MyToken",
  "sourceName": "contracts/MyToken.sol",
  "abi": [
    {
      "inputs": [],
      "stateMutability": "nonpayable",
      "type": "constructor"
    },
    {
      "anonymous": false,
      "inputs": [
        {
          "indexed": true,
          "internalType": "address",
          "name": "owner",
          "type": "address"
        },
        {
          "indexed": true,
          "internalType": "address",
          "name": "spender",
          "type": "address"
        },
        {
          "indexed": false,
          "internalType": "uint256",
          "name": "value",
          "type": "uint256"
        }
      ],
      "name": "Approval",
      "type": "event"
    },
    {
      "anonymous": false,
      "inputs": [
        {
          "indexed": true,
          "internalType": "address",
          "name": "to",
          "type": "address"
        },
        {
          "indexed": false,
          "internalType": "uint256",
          "name": "amount",
          "type": "uint256"
        }
      ],
      "name": "BeforeMint",
      "type": "event"
    },
    {
      "anonymous": false,
      "inputs": [
        {
          "indexed": true,
          "internalType": "address",
          "name": "to",
          "type": "address"
        },
        {
          "indexed": false,
          "internalType": "uint256",
          "name": "amount",
          "type": "uint256"
        }
      ],
      "name": "Mint",
      "type": "event"
    },
    {
      "anonymous": false,
      "inputs": [
        {
          "indexed": true,
          "internalType": "address",
          "name": "previousOwner",
          "type": "address"
        },
        {
          "indexed": true,
          "internalType": "address",
          "name": "newOwner",
          "type": "address"
        }
      ],
      "name": "OwnershipTransferred",
      "type": "event"
    },
    {
      "anonymous": false,
      "inputs": [
        {
          "indexed": true,
          "internalType": "address",
          "name": "from",
          "type": "address"
        },
        {
          "indexed": true,
          "internalType": "address",
          "name": "to",
          "type": "address"
        },
        {
          "indexed": false,
          "internalType": "uint256",
          "name": "value",
          "type": "uint256"
        }
      ],
      "name": "Transfer",
      "type": "event"
    },
    {
      "inputs": [
        {
          "internalType": "address",
          "name": "owner",
          "type": "address"
        },
        {
          "internalType": "address",
          "name": "spender",
          "type": "address"
        }
      ],
      "name": "allowance",
      "outputs": [
        {
          "internalType": "uint256",
          "name": "",
          "type": "uint256"
        }
      ],
      "stateMutability": "view",
      "type": "function"
    },
    {
      "inputs": [
        {
          "internalType": "address",
          "name": "spender",
          "type": "address"
        },
        {
          "internalType": "uint256",
          "name": "amount",
          "type": "uint256"
        }
      ],
      "name": "approve",
      "outputs": [
        {
          "internalType": "bool",
          "name": "",
          "type": "bool"
        }
      ],
      "stateMutability": "nonpayable",
      "type": "function"
    },
    {
      "inputs": [
        {
          "internalType": "address",
          "name": "account",
          "type": "address"
        }
      ],
      "name": "balanceOf",
      "outputs": [
        {
          "internalType": "uint256",
          "name": "",
          "type": "uint256"
        }
      ],
      "stateMutability": "view",
      "type": "function"
    },
    {
      "inputs": [],
      "name": "decimals",
      "outputs": [
        {
          "internalType": "uint8",
          "name": "",
          "type": "uint8"
        }
      ],
      "stateMutability": "view",
      "type": "function"
    },
    {
      "inputs": [
        {
          "internalType": "address",
          "name": "spender",
          "type": "address"
        },
        {
          "internalType": "uint256",
          "name": "subtractedValue",
          "type": "uint256"
        }
      ],
      "name": "decreaseAllowance",
      "outputs": [
        {
          "internalType": "bool",
          "name": "",
          "type": "bool"
        }
      ],
      "stateMutability": "nonpayable",
      "type": "function"
    },
    {
      "inputs": [
        {
          "internalType": "address",
          "name": "spender",
          "type": "address"
        },
        {
          "internalType": "uint256",
          "name": "addedValue",
          "type": "uint256"
        }
      ],
      "name": "increaseAllowance",
      "outputs": [
        {
          "internalType": "bool",
          "name": "",
          "type": "bool"
        }
      ],
      "stateMutability": "nonpayable",
      "type": "function"
    },
    {
      "inputs": [
        {
          "internalType": "address",
          "name": "to",
          "type": "address"
        },
        {
          "internalType": "uint256",
          "name": "amount",
          "type": "uint256"
        }
      ],
      "name": "mint",
      "outputs": [],
      "stateMutability": "nonpayable",
      "type": "function"
    },
    {
      "inputs": [],
      "name": "name",
      "outputs": [
        {
          "internalType": "string",
          "name": "",
          "type": "string"
        }
      ],
      "stateMutability": "view",
      "type": "function"
    },
    {
      "inputs": [],
      "name": "owner",
      "outputs": [
        {
          "internalType": "address",
          "name": "",
          "type": "address"
        }
      ],
      "stateMutability": "view",
      "type": "function"
    },
    {
      "inputs": [],
      "name": "renounceOwnership",
      "outputs": [],
      "stateMutability": "nonpayable",
      "type": "function"
    },
    {
      "inputs": [],
      "name": "symbol",
      "outputs": [
        {
          "internalType": "string",
          "name": "",
          "type": "string"
        }
      ],
      "stateMutability": "view",
      "type": "function"
    },
    {
      "inputs": [],
      "name": "totalSupply",
      "outputs": [
        {
          "internalType": "uint256",
          "name": "",
          "type": "uint256"
        }
      ],
      "stateMutability": "view",
      "type": "function"
    },
    {
      "inputs": [
        {
          "internalType": "address",
          "name": "to",
          "type": "address"
        },
        {
          "internalType": "uint256",
          "name": "amount",
          "type": "uint256"
        }
      ],
      "name": "transfer",
      "outputs": [
        {
          "internalType": "bool",
          "name": "",
          "type": "bool"
        }
      ],
      "stateMutability": "nonpayable",
      "type": "function"
    },
    {
      "inputs": [
        {
          "internalType": "address",
          "name": "from",
          "type": "address"
        },
        {
          "internalType": "address",
          "name": "to",
          "type": "address"
        },
        {
          "internalType": "uint256",
          "name": "amount",
          "type": "uint256"
        }
      ],
      "name": "transferFrom",
      "outputs": [
        {
          "internalType": "bool",
          "name": "",
          "type": "bool"
        }
      ],
      "stateMutability": "nonpayable",
      "type": "function"
    },
    {
      "inputs": [
        {
          "internalType": "address",
          "name": "newOwner",
          "type": "address"
        }
      ],
      "name": "transferOwnership",
      "outputs": [],
      "stateMutability": "nonpayable",
      "type": "function"
    }
  ],
  "bytecode": "0x60803462000351576040906001600160401b03908083018281118282101762000251578352600781526020916626b4aa37b5b2b760c91b8383015283518481018181108382111762000251578552600390818152624d544b60e81b8582015283519083821162000251578254916001958684811c9416801562000346575b8885101462000330578190601f94858111620002da575b508890858311600114620002735760009262000267575b505060001982861b1c191690861b1783555b8051938411620002515760049586548681811c9116801562000246575b828210146200023157838111620001e6575b50809285116001146200017857509383949184926000956200016c575b50501b92600019911b1c19161790555b60058054336001600160a01b0319821681179092559151916001600160a01b03167f8be0079c531659141344cd1fd0a4f28419497f9722a3daafe3b4186f6b6457e0600080a3610bc39081620003578239f35b01519350388062000109565b92919084601f1981168860005285600020956000905b89838310620001cb5750505010620001b0575b50505050811b01905562000119565b01519060f884600019921b161c1916905538808080620001a1565b8587015189559097019694850194889350908101906200018e565b87600052816000208480880160051c82019284891062000227575b0160051c019087905b8281106200021a575050620000ec565b600081550187906200020a565b9250819262000201565b602288634e487b7160e01b6000525260246000fd5b90607f1690620000da565b634e487b7160e01b600052604160045260246000fd5b015190503880620000ab565b90889350601f19831691876000528a6000209260005b8c828210620002c35750508411620002aa575b505050811b018355620000bd565b015160001983881b60f8161c191690553880806200029c565b8385015186558c9790950194938401930162000289565b90915085600052886000208580850160051c8201928b861062000326575b918a91869594930160051c01915b8281106200031657505062000094565b600081558594508a910162000306565b92508192620002f8565b634e487b7160e01b600052602260045260246000fd5b93607f16936200007d565b600080fdfe6080604081815260048036101561001557600080fd5b600092833560e01c90816306fdde031461073157508063095ea7b31461070757806318160ddd146106e857806323b872dd1461061e578063313ce5671461060257806339509351146105b257806340c10f191461049a57806370a0823114610463578063715018a6146104065780638da5cb5b146103dd57806395d89b41146102bb578063a457c2d714610214578063a9059cbb146101e3578063dd62ed3e146101965763f2fde38b146100c857600080fd5b34610192576020366003190112610192576100e1610871565b906100ea610b35565b6001600160a01b03918216928315610140575050600554826bffffffffffffffffffffffff60a01b821617600555167f8be0079c531659141344cd1fd0a4f28419497f9722a3daafe3b4186f6b6457e08380a380f35b906020608492519162461bcd60e51b8352820152602660248201527f4f776e61626c653a206e6577206f776e657220697320746865207a65726f206160448201526564647265737360d01b6064820152fd5b8280fd5b5050346101df57806003193601126101df57806020926101b4610871565b6101bc61088c565b6001600160a01b0391821683526001865283832091168252845220549051908152f35b5080fd5b5050346101df57806003193601126101df5760209061020d610203610871565b60243590336109c7565b5160018152f35b5082346102b857826003193601126102b85761022e610871565b918360243592338152600160205281812060018060a01b03861682526020522054908282106102675760208561020d85850387336108c5565b608490602086519162461bcd60e51b8352820152602560248201527f45524332303a2064656372656173656420616c6c6f77616e63652062656c6f77604482015264207a65726f60d81b6064820152fd5b80fd5b509190346101df57816003193601126101df5780519082845460018160011c90600183169283156103d3575b60209384841081146103c0578388529081156103a4575060011461034f575b505050829003601f01601f191682019267ffffffffffffffff84118385101761033c5750829182610338925282610828565b0390f35b634e487b7160e01b815260418552602490fd5b8787529192508591837f8a35acfbc15ff81a39ae7d344fd709f28e8600b4aa8c65c6b64bfe7fe36bd19b5b8385106103905750505050830101388080610306565b80548886018301529301928490820161037a565b60ff1916878501525050151560051b8401019050388080610306565b634e487b7160e01b895260228a52602489fd5b91607f16916102e7565b5050346101df57816003193601126101df5760055490516001600160a01b039091168152602090f35b83346102b857806003193601126102b85761041f610b35565b600580546001600160a01b0319811690915581906001600160a01b03167f8be0079c531659141344cd1fd0a4f28419497f9722a3daafe3b4186f6b6457e08280a380f35b5050346101df5760203660031901126101df5760209181906001600160a01b0361048b610871565b16815280845220549051908152f35b5090346101925780600319360112610192576104b4610871565b90602435916104c1610b35565b60018060a01b031692837ffb037d1aa6d4f0a850718755eb6cc5d2eb7ad8de78c1cffda9ab6a7cae44a10e60208451868152a2831561057057508160209161052c7f0f6798a560793a54c3bcfe86a93cde1e73087d944c0ea20544137d4121396885946002546108a2565b60025584865285835280862082815401905584867fddf252ad1be2c89b69c2b068fc378daa952ba7f163c4a11628f55a4df523b3ef858451868152a351908152a280f35b6020606492519162461bcd60e51b8352820152601f60248201527f45524332303a206d696e7420746f20746865207a65726f2061646472657373006044820152fd5b5050346101df57806003193601126101df5761020d6020926105fb6105d5610871565b338352600186528483206001600160a01b038216845286529184902054602435906108a2565b90336108c5565b5050346101df57816003193601126101df576020905160128152f35b508290346101df5760603660031901126101df5761063a610871565b61064261088c565b91846044359460018060a01b03841681526001602052818120338252602052205490600019820361067c575b60208661020d8787876109c7565b8482106106a5575091839161069a6020969561020d950333836108c5565b91939481935061066e565b606490602087519162461bcd60e51b8352820152601d60248201527f45524332303a20696e73756666696369656e7420616c6c6f77616e63650000006044820152fd5b5050346101df57816003193601126101df576020906002549051908152f35b5050346101df57806003193601126101df5760209061020d610727610871565b60243590336108c5565b84915083346101925782600319360112610192578260035460018160011c906001831692831561081e575b60209384841081146103c05783885290811561080257506001146107ac57505050829003601f01601f191682019267ffffffffffffffff84118385101761033c5750829182610338925282610828565b600387529192508591837fc2575a0e9e593c00f959f8c92f12db2869c3395a3b0502d05e2516446f71f85b5b8385106107ee5750505050830101858080610306565b8054888601830152930192849082016107d8565b60ff1916878501525050151560051b8401019050858080610306565b91607f169161075c565b6020808252825181830181905290939260005b82811061085d57505060409293506000838284010152601f8019910116010190565b81810186015184820160400152850161083b565b600435906001600160a01b038216820361088757565b600080fd5b602435906001600160a01b038216820361088757565b919082018092116108af57565b634e487b7160e01b600052601160045260246000fd5b6001600160a01b0390811691821561097657169182156109265760207f8c5be1e5ebec7d5bd14f71427d1e84f3dd0314c0f7b2291e5b200ac8c7c3b925918360005260018252604060002085600052825280604060002055604051908152a3565b60405162461bcd60e51b815260206004820152602260248201527f45524332303a20617070726f766520746f20746865207a65726f206164647265604482015261737360f01b6064820152608490fd5b60405162461bcd60e51b8152602060048201526024808201527f45524332303a20617070726f76652066726f6d20746865207a65726f206164646044820152637265737360e01b6064820152608490fd5b6001600160a01b03908116918215610ae25716918215610a9157600082815280602052604081205491808310610a3d57604082827fddf252ad1be2c89b69c2b068fc378daa952ba7f163c4a11628f55a4df523b3ef958760209652828652038282205586815220818154019055604051908152a3565b60405162461bcd60e51b815260206004820152602660248201527f45524332303a207472616e7366657220616d6f756e7420657863656564732062604482015265616c616e636560d01b6064820152608490fd5b60405162461bcd60e51b815260206004820152602360248201527f45524332303a207472616e7366657220746f20746865207a65726f206164647260448201526265737360e81b6064820152608490fd5b60405162461bcd60e51b815260206004820152602560248201527f45524332303a207472616e736665722066726f6d20746865207a65726f206164604482015264647265737360d81b6064820152608490fd5b6005546001600160a01b03163303610b4957565b606460405162461bcd60e51b815260206004820152602060248201527f4f776e61626c653a2063616c6c6572206973206e6f7420746865206f776e65726044820152fdfea2646970667358221220641f7799de2d065429ac9e08bcf83ecbff344be7f2bf25d7d394b0fff926c54a64736f6c63430008180033",
  "linkReferences": {},
  "deployedLinkReferences": {}
}