{
  "_format": "hh-sol-artifact-1",
  "contractName": "Faucet",
  "sourceName": "contracts/Faucet.sol",
  "abi": [
    {
      "inputs": [
        {
          "internalType": "address",
          "name": "tokenAddress",
          "type": "address"
        }
      ],
      "stateMutability": "nonpayable",
      "type": "constructor"
    },
    {
      "anonymous": false,
      "inputs": [
        {
          "indexed": true,
          "internalType": "address",
          "name": "user",
          "type": "address"
        }
      ],
      "name": "ClaimRequested",
      "type": "event"
    },
    {
      "anonymous": false,
      "inputs": [
        {
          "indexed": true,
          "internalType": "address",
          "name": "user",
          "type": "address"
        },
        {
          "indexed": false,
          "internalType": "uint256",
          "name": "amount",
          "type": "uint256"
        }
      ],
      "name": "TokensClaimed",
      "type": "event"
    },
    {
      "inputs": [],
      "name": "claimAmount",
      "outputs": [
        {
          "internalType": "uint256",
          "name": "",
          "type": "uint256"
        }
      ],
      "stateMutability": "view",
      "type": "function"
    },
    {
      "inputs": [],
      "name": "claimTokens",
      "outputs": [],
      "stateMutability": "nonpayable",
      "type": "function"
    },
    {
      "inputs": [
        {
          "internalType": "address",
          "name": "",
          "type": "address"
        }
      ],
      "name": "hasClaimed",
      "outputs": [
        {
          "internalType": "bool",
          "name": "",
          "type": "bool"
        }
      ],
      "stateMutability": "view",
      "type": "function"
    },
    {
      "inputs": [],
      "name": "token",
      "outputs": [
        {
          "internalType": "contract MyToken",
          "name": "",
          "type": "address"
        }
      ],
      "stateMutability": "view",
      "type": "function"
    }
  ],
  "bytecode": "0x60803461008157601f61046238819003918201601f19168301916001600160401b038311848410176100865780849260209460405283398101031261008157516001600160a01b0381169081900361008157680ad78ebc5ac6200000600155600080546001600160a01b0319169190911790556040516103c5908161009d8239f35b600080fd5b634e487b7160e01b600052604160045260246000fdfe60806040818152600436101561001457600080fd5b600091823560e01c90816348c54b9d146100da5750806373b2e80e14610096578063830953ab146100785763fc0c546a1461004e57600080fd5b34610074578160031936011261007457905490516001600160a01b039091168152602090f35b5080fd5b50346100745781600319360112610074576020906001549051908152f35b5034610074576020366003190112610074576004356001600160a01b038116908190036100d657818360ff92602095526002855220541690519015158152f35b8280fd5b9050346100d657826003193601126100d6576100f5816102c0565b600d81526101196020916c636c61696d546f6b656e73203160981b838201526102f2565b337f4db40e774b0c18bfc5d62572b2fa6efe94ec09fbad164b9154c7116ec4a754e98480a261016a825161014c816102c0565b600d81526c31b630b4b6aa37b5b2b739901960991b838201526102f2565b33835260028152818320600160ff198254161790556101ab825161018d816102c0565b600d81526c636c61696d546f6b656e73203360981b838201526102f2565b825460015484916001600160a01b0316803b156100d65760448392865194859384926340c10f1960e01b845233600485015260248401525af180156102b357610278575b506c636c61696d546f6b656e73203560981b826102316102759451610213816102c0565b600d81526c18db185a5b551bdad95b9cc80d609a1b858201526102f2565b60015481519081527f896e034966eaaf1adc54acc0f257056febbd300c9e47182cf761982cf1f5e430843392a25191610269836102c0565b600d83528201526102f2565b80f35b67ffffffffffffffff811161029f5782526c636c61696d546f6b656e73203560981b6101ef565b634e487b7160e01b84526041600452602484fd5b50505051903d90823e3d90fd5b6040810190811067ffffffffffffffff8211176102dc57604052565b634e487b7160e01b600052604160045260246000fd5b6040519060209082602081019263104c13eb60e21b84526020602483015282519283604484015260005b84811061037857505050808260006064601f9560839501015283199384910116810103604481018552011682019082821067ffffffffffffffff8311176102dc57600092839260405251906a636f6e736f6c652e6c6f675afa50565b81810183015187820160640152869350820161031c56fea2646970667358221220fa3d2250ab6604a78da55247a8d45ab89777ec05d86be399f0a7b620580b559c64736f6c63430008180033",
  "linkReferences": {},
  "deployedLinkReferences": {}
}